:02000000AF2827
:100008008031791D96288B1D4D282700131D4D28FA
:10001800FA08031D1128F915462808307A02031832
:10002800192820002214A23545287A08083A031D09
:10003800202820002214452809307A02031C2C2885
:1000480010307A0203182C2820002114A1354528E5
:100058007A08113A031D332820002114452811304D
:100068007A02031C3F2818307A0203183F28200020
:100078002014A03545287A08183A031D4528200081
:100088002014FB0AFA0A7A081A3A031D722879140E
:1000980072288B1D72282700931D72287A0803196D
:1000A8005C2808307A0203185C282000A2357128E1
:1000B80009307A02031C672810307A02031867286F
:1000C8002000A135712811307A02031C71281830DC
:1000D8007A02031871282000A035FA0A7A0B7728CB
:1000E800FB01F91096287A080D3A031D872800307D
:1000F800F9190130F00001307B05F1007006031D8D
:10010800F914FB0196281A307A02031C962800304D
:1001180079180130F00001307B05F10070060319F1
:10012800F9147911270093018B1A0B1D09000B1183
:100138007A080319A3282000A50A0319A60A200093
:100148000C1AA928A30A0319A40A791E0900A70AE8
:100158000319A80A09008801402AAA017830210059
:10016800990023008C01FF3021008C008C120C10A8
:100178008C1020000C148C1421009513FF302400DF
:100188008C002100171064008B152700921512159A
:100198008231562280310B178B17230015158231B7
:1001A8004E22803179190229F918FA28791EF12886
:1001B8002000A701A8012A0881317F218031003A57
:1001C8000319ED2802308131AF2180312000AA0ABD
:1001D800FE28823117228031FE2881314B2180315F
:1001E800003A0319FE2882315D22803103308131C3
:1001F800D721803182314E2280317915003020009C
:1002080026020730031925020318791D1029A501B4
:10021800A60182314E2280310C1A34290030240282
:100228000630031923020318F91A1E29F916823118
:100238005D22803101302402393003192302031C66
:10024800372982311722803179162000A701A801A9
:10025800A301A401F20100308131FF218031372947
:10026800F912A301A401791E492901308131D7214E
:100278008031023020002802593003192702031C5C
:10028800492979128231172280310000D62800309E
:1002980082312D228131F800FF3A0319F8017808DC
:1002A80009077807013E82312D228131F50078084F
:1002B80009077807023E82312D228131F60078083D
:1002C80009077807033E82312D228131F70020008B
:1002D80022087506031D782921087606031D78294A
:1002E80077082006031901347808031DF803F80875
:1002F800031900345329A90081314B218131003A77
:10030800031D00340B302902031800342908F200B9
:1003180000308131FF21813120002208F2002908B4
:1003280009072907013E8131FF2181312000210879
:10033800F200290809072907023E8131FF2181318E
:1003480020002008F200290809072907033E813107
:10035800FF2181310134F500F50803190800210057
:100368008C1020008C100330F4000630F300773036
:10037800F200F20BBD29F30BBD29F40BBD29640073
:1003880020008C1421008C100330F4000630F30098
:100398007730F200F20BCE29F30BCE29F40BCE29DD
:1003A8006400F503B029F500F508031908002100D9
:1003B8000C1020000C100330F4000630F3007730E6
:1003C800F200F20BE529F30BE529F40BE5296400AB
:1003D80020000C1421000C100330F4000630F30048
:1003E8007730F200F20BF629F30BF629F40BF62915
:1003F8006400F503D829F30023009518002A730830
:100408009100720893003F30950503108B1B03146D
:100418008B13151555309600AA30960095141511B2
:1004280003188B17080021008C1020008C10153041
:10043800F4003730F300CA30F200F20B212AF30B34
:10044800212AF40B212A282A20008C1421008C1040
:100458000800F4006400230095182E2A74089100FF
:100468003F30950515140310151803140030093D85
:10047800F200F30113080800F901FA01FB01A001D9
:10048800A101A201A301A401A501A601A701A80138
:100498002000B128FA012000A201A101A0017910D1
:1004A800F9110800210095110730950495128B1653
:0E04B80008008C1E612A8C1208008C160800A9
:020000040001F9
:04000E00A4C9FFDFA3
:10E000000000000000000000000000000000000010
:00000001FF
