:02000000B8281E
:1000080080317A188B1D9F282700131D5128FB0863
:10001800031D102879154A2808307B020318182870
:1000280020002214A23544287B08083A031D1F2803
:1000380020002214442809307B02031C2B2810308E
:100048007B0203182B2820002114A13544287B08A3
:10005800113A031D322820002114442811307B0254
:10006800031C3E2818307B0203183E282000201469
:10007800A03544287B08183A031D44282000201482
:1000880019307B0203184A282000A90AFB0A7B08BA
:100098001A3A031D732879147328931D73287B0853
:1000A80003195D2808307B0203185D282000A2355B
:1000B800722809307B02031C682810307B02031861
:1000C80068282000A135722811307B02031C722891
:1000D80018307B02031872282000A035FB0A27007D
:1000E80013197828931D9F287B0B7E282000A901CF
:1000F800F9109F287B080D3A031D8F2800307919C5
:100108000130F000013020002905F1007006031DC0
:10011800F914A9019F281A307B02031C9F2800307C
:1001280079180130F000013020002905F10070062F
:100138000319F9147A10270093018B1A0B1D090073
:100148000B117B080319AC282000A50A0319A60A7D
:1001580020000C1AB228A30A0319A40AF91D0900E1
:10016800A70A0319A80A090088015F2AAE01783096
:100178002100990023008C01FF3021008C008C1293
:100188000C108C1020000C148C1421009513FF30D7
:1001980024008C002100171064008B15270092158D
:1001A800121582317D2280310B178B17230015150C
:1001B80082316D2280317A182129F918F528F91D24
:1001C800F9282000A701A801AE0A2E0881316A216A
:1001D8008031003A0319F52802308131CE2180316F
:1001E8001E298231362280311E2981319C2180319D
:1001F800003A03191E298231762280318C1E1A2971
:1002080021000C1020000C100B30AD001C30AC008D
:100218006330AB00AB0B0E29AC0B0E29AD0B0E29CE
:10022800640020000C1421000C101E2903308131B9
:10023800F621803182316D22803100302000260283
:1002480007300319250203187A1C2F29A501A601D6
:1002580082316D2280310C1A532900302402063075
:10026800031923020318791A3D2979168231762257
:10027800803101302402393003192302031C562926
:10028800823136228031F9152000A701A801A30187
:10029800A401F201003082311E22803156297912E0
:1002A800A301A401F91D682901308131F6218031AB
:1002B800023020002802593003192702031C68293C
:1002C800F9118231362280310000DF28AA008131FD
:1002D8009C218131003A031D00340B3020002A0292
:1002E800031800342A08F200003082311E228131BE
:1002F8002000AA032208F2002A0809072A07013E5B
:1003080082311E22813120002108F2002A080907C3
:100318002A07023E82311E22813120002008F20085
:100328002A0809072A07033E82311E228131013437
:10033800003082314C228131F800FF3A0319003431
:10034800F80803190034F803780809077807013E0C
:1003580082314C228131F500780809077807023E7E
:1003680082314C228131F600780809077807033E6C
:1003780082314C228131F700200022087506031DC6
:10038800A42921087606031DA42977082006031945
:100398000134A429F500F5080319080021008C1080
:1003A80020008C100330F4000630F3007730F200A0
:1003B800F20BDC29F30BDC29F40BDC2964002000A8
:1003C8008C1421008C100330F4000630F3007730D1
:1003D800F200F20BED29F30BED29F40BED29640083
:1003E800F503CF29F500F5080319080021000C10C2
:1003F80020000C100330F4000630F3007730F200D0
:10040800F20B042AF30B042AF40B042A64002000DC
:100418000C1421000C100330F4000630F300773080
:10042800F200F20B152AF30B152AF40B152A6400B7
:10043800F503F729F300230095181F2A7308910084
:10044800720893003F30950503108B1B03148B1320
:10045800151555309600AA309600951415110318F5
:100468008B17080021008C1020008C101530F40028
:100478003730F300CA30F200F20B402AF30B402A5F
:10048800F40B402A472A20008C1421008C10080005
:10049800F4006400230095184D2A740891003F3039
:1004A800950515140310151803140030093DF200C2
:1004B800F30113080800F901FB01A001A101A20141
:1004C800A301A401A501A601A701A801A901200073
:1004D800BA28FB012000A201A101A001791079111D
:1004E8007A14080020008C1E7B2A8C1208008C16B7
:1004F8000800210095110730950495128B16080005
:020000040001F9
:04000E00A4C9FFDFA3
:10E000000000000000000000000000000000000010
:00000001FF
